:0400000002006F3259
:01000B0032C2
:0100130032BA
:01001B0032B2
:0100230032AA
:01002B0032A2
:03003300020BAC11
:0300CA00020036FB
:030036000206BB04
:2006BB00C203C201C202C200120BC343B2020000000000438002000000000043B40100007D
:2006DB0000000085A0A0000000000053B4FD0000000000750800750901750A12750B0175B3
:2006FB000C1C750D01750E3C750F0175145C75150190E680E0FF30E70E850C10850D1185BD
:20071B000E12850F13800C850E10850F11850C12850D137E007401FF54E07003020826759D
:20073B001A00751B017CEC7D017A007B01ECC39AFCED9BFD74022CFCE43DFD8C168D1775D6
:20075B001800751900780079007E007F00C3E89516E99517EE9518EF9519501B748028F54B
:20077B0082E439F58374CDF008B8000909B900050EBE00D90F80D6780079007E007F00C3CB
:20079B00E89516E99517EE9518EF95195029748028FCE439FDAA1AAB1BE82AF582E93BF507
:2007BB0083E0FB8C828D83F008B8000909B900050EBE00CB0F80C87508807509007E007FBC
:2007DB0001EE2480FEEF34FFFFE50AC39EF50AE50B9FF50BE510C39EF510E5119FF511E593
:2007FB0012C39EF512E5139FF513E50CC39EF50CE50D9FF50DE50EC39EF50EE50F9FF50FF1
:20081B00E514C39EF514E5159FF515D2E843D82090E668E04409F090E65CE0443DF0D2AF23
:20083B0090E680E0FF20E105D205120F5690E680E054F7F0AF8E74F85FF58EC203300005DE
:20085B0012089BC200300333120C8F502EC20312129C20012090E682E0FF30E70890E682C1
:20087B00E0FF20E1EA90E682E0FF30E60890E682E0FF20E0DA12120B120C91120C6E80BD46
:20089B0090E6B9E0FF24F45003020B97EF240A83F582EF241083F583E4739A4497039797EE
:2008BB00CD97948E8288090A0B0B0B0B080B09090909120C934003020BA490E6BBE0FFBFA3
:2008DB0001028017BF02028038BF03028059BF0602801BBF0702803C020977AF0990E6B302
:2008FB00EFF0AE087F0090E6B4EEF0020BA4AF0B90E6B3EFF0AE0A7F0090E6B4EEF0020B02
:20091B00A4AF1190E6B3EFF0AE107F0090E6B4EEF0020BA4AF1390E6B3EFF0AE127F0090C1
:20093B00E6B4EEF0020BA490E6BAE0F582120F8CAE82AF837D008E028F038D04EE4F6011FF
:20095B008B0790E6B3EFF07B0090E6B4EAF0020BA490E6A0E0FF4401F0020BA490E6A0E0E1
:20097B00FF4401F0020BA4120D00020BA4120CF8020BA4120C95020BA4120CE5020BA412B6
:20099B000D134003020BA490E6B8E0FFBF8002800DBF8102802DBF8202803E020A39A20175
:2009BB00E43325E0FFA202E433FE420790E740EFF090E741E4F090E68AF090E68B7402F086
:2009DB00020BA490E740E4F090E741F090E68AF090E68B7402F0020BA490E6BCE0FF5307A5
:2009FB007E90E6BCE0FEC374809EE4334F90127C93FF3395E0FE74A12FFF74E63EFE8F8253
:200A1B008E83E0FF53070190E740EFF090E741E4F090E68AF090E68B7402F0020BA490E6D0
:200A3B00A0E0FF4401F0020BA4120D154003020BA490E6B8E0FF6008BF0202801B020BA48A
:200A5B0090E6BAE0FFBF0105C201020BA490E6A0E0FF4401F0020BA490E6BAE06003020AD9
:200A7B00F890E6BCE0FF53077E90E6BCE0FEC374809EE4334F90127C93FF3395E0FE74A144
:200A9B002FFF74E63EFE90E6BCE0FD53057E90E6BCE0FCC374809CE4334D90127C93FD33EC
:200ABB0095E0FC74A12DFD74E63CFC8D828C83E0FD5305FE8F828E83EDF090E6BCE05480A3
:200ADB00C423541FFF90E6BCE0FE740F5E90E6832FF090E683E0FF4420F0020BA490E6A0A6
:200AFB00E0FF4401F0020BA4120D174003020BA490E6B8E0FF6008BF02028025020BA490CE
:200B1B00E6BAE0FFBF0105D201020BA490E6BAE0FFBF0203020BA490E6A0E0FF4401F080C4
:200B3B006890E6BCE0FF53077E90E6BCE0FEC374809EE4334F90127C93FF3395E0FE74A113
:200B5B002FFF74E63EFE90E6BCE0FD53057E90E6BCE0FCC374809CE4334D90127C93FD332B
:200B7B0095E0FC74A12DFD74E63CFC8D828C83E0FD4305018F828E83EDF0800D120D1950C0
:200B9B000890E6A0E0FF4401F090E6A0E04480F022C0E0C007C0D075D000AFD874EF5FF5C2
:080BBB00D8D0D0D007D0E03201
:0A127C00000102020303040405054B
:0200C800C20470
:200BC30090E6007410F090E6027408F000000090E60374E0F000000090E670E0FF4480F00E
:200BE30000000090E60174E3F000000090E600E0FF4402F090E61274A0F000000090E61493
:200C030074E0F000000090E6137402F000000090E6157402F000000000000090E60474803F
:200C2300F000000090E6047402F000000090E6047404F000000090E6047406F0000000908B
:200C4300E6047408F000000090E604E4F000000090E618E4F000000090E6187411F0000088
:200C63000090E61A740DF000000022E5A020E102D204300416E5A030E11190E6017403F021
:200C830000000043A001000000C20422D322D322D32290E680E0FF30E72190E6247402F099
:200CA30000000090E6267402F000000090E625E4F000000090E627E4F0801F90E624E4F042
:200CC30000000090E626E4F000000090E6257440F000000090E6277440F090E6BAE0F51C00
:200CE300D32290E740E51CF090E68AE4F090E68B7401F0D32290E6BAE0F51DD32290E74057
:200D0300E51DF090E68AE4F090E68B7401F0D322D322D322D322D322C0E0C082C083C007EF
:200D2300C0D075D000D200AF9174EF5FF59190E65D7401F0D0D0D007D083D082D0E032C08B
:200D4300E0C082C083C007C0D075D000AF9174EF5FF59190E65D7404F0D0D0D007D083D032
:200D630082D0E032C0E0C082C083C007C0D075D000AF9174EF5FF59190E65D7402F0D0D0EA
:200D8300D007D083D082D0E032C0E0C082C083C007C0D075D00090E680E0FF30E70E850CA6
:200DA30010850D11850E12850F13800C850E10850F11850C12850D13AF9174EF5FF59190FD
:200DC300E65D7410F0D0D0D007D083D082D0E032C0E0C082C083C007C0D075D000D203AF16
:200DE3009174EF5FF59190E65D7408F0D0D0D007D083D082D0E032C0E0C082C083C007C02E
:200E0300D075D00090E680E0FF30E70E850C10850D11850E12850F13800C850E10850F115C
:200E2300850C12850D13AF9174EF5FF59190E65D7420F0D0D0D007D083D082D0E032323226
:200E430032323232323232323232323232323232323232323232323232323232323232324F
:200E63003232E582FF30E010908100E0900003F0900004E0FE54FEF0EF30E110909100E04C
:200E8300900003F0900004E0FE54FDF0EF30E21090A100E0900003F0900004E0FE54FBF0C3
:200EA300EF30E31090B100E0900003F0900004E0FF54F7F022E582FF30E010908000E090A3
:200EC3000003F0900004E0FE4401F0EF30E110909000E0900003F0900004E0FE4402F0EF4B
:200EE30030E21090A000E0900003F0900004E0FE4404F0EF30E31090B000E0900003F0904B
:080F03000004E0FF4408F022A5
:05128600000000000063
:200F0B00AE82AF8390E600E0FD5418701174012EFCE43FFD8C06C313CE13CEFF801290E647
:200F2B0000E0FD530518BD1007EFCE25E0CE33FF8E048F051EBEFF011FEC4D600DC007C075
:0B0F4B000612128BD006D00780E622B1
:11128B007400F58690FDA57C05A3E582458370F92253
:200F560030050A90E680E0FF440AF0800890E680E0FF4408F09005DC120F0B90E65D74FFAD
:160F7600F090E65F74FFF0AF9174EF5FF59190E680E054F7F02282
:200100001201000200000040B404F1000000010200010A060002000000400100090220005F
:20012000010100A0320904000002FF0000000705020200020007058602000200090220000A
:20014000010100A0320904000002FF00000007050402400000070588024000000403090481
:20016000100343007900700072006500730073007C0345005A002D0055005300420020002E
:2001800046005800320020004700500049004600200074006F0020004500780074002000D5
:2001A0004600490046004F0020004500780061006D0070006C0065002000750073006900BE
:2001C0006E0067002000530069006E0067006C00650020005400720061006E00730061003F
:0E01E0006300740069006F006E007300000081
:03004300020600B2
:03005300020600A2
:20060000020D1B00020D6700020D4200020DD300020D8C00020DFA00020E4100020E4200C0
:20062000020E4300020E4400020E4500020E4600020E4700020E4800020E4900020E4A0006
:20064000020E4B00020E4200020E4C00020E4D00020E4E00020E4F00020E5000020E5100B6
:20066000020E5200020E4200020E4200020E4200020E5300020E5400020E5500020E560090
:20068000020E5700020E5800020E5900020E5A00020E5B00020E5C00020E5D00020E5E0006
:1806A000020E5F00020E6000020E6100020E6200020E6300020E640099
:200F8C00AF82AD14AE158D828E83A3E0FCBC03238F041FEC70058D828E83228D038E048D0B
:170FAC00828E83E0F97A00E92BFBEA3CFC8B058C0680D390000022F0
:200FC300752600D2E9D2AF22AF8290E678E0FE20E6F8C2E9EF2FFF90E678E0FE4480F09042
:200FE300E679EFF090E678E0FE30E0F890E678E0FE4440F090E678E0FE20E6F890E678E004
:20100300FE30E1D3D2E922AF8290E678E0FE20E6F8E526702490E678E04480F0EF2F90E65E
:2010230079F0852D21AD2EAE2F7F008D228E238F24752500752601D322C322AF8290E678F8
:20104300E0FE20E6F8E526702890E678E04480F0EF2FFF90E67974014FF0852D21AD2EAE70
:201063002F7F008D228E238F24752500752603D322C322C0E0C0F0C082C083C007C006C078
:2010830005C004C003C002C0D075D00090E678E0FF30E20675260602119B90E678E0FF2009
:2010A300E10D7402B52602800675260702119BAF26BF01028019BF02028075BF0302803FAB
:2010C300BF050302118BBF090302119802119BAD22AE23AF24E525FC04FB8B25EC2DFDE462
:2010E3003EFE8D828E838FF012125CFD90E679F0EBB52102800302119B75260502119BE58F
:20110300252522FDE43523FEAF2490E679E0FC8D828E838FF01212417526027401B521029D
:20112300800302119B90E678E0FF4420F002119BAE217F00EE24FEFCEF34FFFDAA257B00E9
:20114300EAB5040CEBB5050890E678E0FD4420F01EBEFF011FEAB5060FEBB5070B90E678C2
:20116300E0FF4440F0752600E5252522FDE43523FEAF2490E679E0FC8D828E838FF0121295
:2011830041E52504F525801090E678E0FF4440F07526008003752600AF9174DF5FF591D011
:1611A300D0D002D003D004D005D006D007D083D082D0F0D0E03224
:2011B90085272D85282E85292F12103EAF26BF0002800ABF0602800CBF07F18002D322750F
:2011D9002600D322752600D322852A2D852B2E852C2F12100AAF26BF0002800ABF0602801E
:1211F9000CBF07F18002D322752600D322752600D3228A
:20120B0090E682E0FF30E00890E682E0FF20E61090E682E0FF30E11D90E682E0FF30E715DF
:16122B0090E680E04401F0900014120F0B90E680E0FF54FEF02299
:14129C0090E682E044C0F090E681F04387010000000000229E
:06009E00E478FFF6D8FD36
:20007C007905E94400601B7A01901286780075A000E493F2A308B8000205A0D9F4DAF2758D
:02009C00A0FFC3
:1B12410020F71130F6138883A88220F509F6A8837583002280FEF280F5F022AC
:2000A4007800E84400600A790075A000E4F309D8FC7800E84400600C7900900000E4F0A35C
:0400C400D8FCD9FA91
:0D006F0075812F121278E5826003020036C1
:1C125C0020F71430F6148883A88220F507E6A88375830022E280F7E49322E022A1
:041278007582002259
:00000001FF
