:04000000020059326F
:01000B0032C2
:0100130032BA
:01001B0032B2
:0100230032AA
:01002B0032A2
:01003300329A
:01003B003292
:03004300023F0079
:01004B003282
:03005300023F0069
:0300C400020056E1
:030056000200C7DE
:2000C70090E60BE4F000000000759280E2C200C20175100075110090E680E043E00AF09048
:2000E70005DC12097390E680E053E0F7F090E6007410F00000000090E600E043E002F090B5
:20010700E601E043E040F090E100E4F5F012087590E6027408F00000000090E60374E0F054
:200127000000000090E670E043E080F00000000090E60174E3F00000000090E61274A0F015
:200147000000000090E61474E0F00000000090E6137402F00000000090E6157402F00000EA
:20016700000090E611E053E07FF00000000090E610E053E07FF00000000090E6047480F009
:200187000000000090E6047402F00000000090E6047404F00000000090E6047406F00000B2
:2001A700000090E6047408F00000000090E604E4F00000000090E618E4F00000000090E62C
:2001C700187411F00000000090E61A740DF00000000043B2020000000043800200000000CE
:2001E70043B4010000000053A0FE0000000053B4FD00000000D2E890E668E043E008F090E8
:20020700E65CE043E001F090E65CE043E002F090E65CE043E020F090E65CE043E010F0D24E
:20022700AF74D8C0E07413C0E07480C0E01209F4158115811581759290E230001A74F0C0A9
:20024700E07413C0E07480C0E01209F4158115811581120441C200E5A020E102D201300186
:20026700D9E5A030E1D490E6017403F00000000043A00100000000C20180BF7582002275E2
:200287008201227402C0E07414C0E07480C0E01209F4158115811581AD12AE13AF148D82BD
:2002A7008E838FF0E51112084375820122AF82AD157E007C00C005C006C007C0047411C0F2
:2002C700E07414C0E07480C0E01209F4E58124F9F5818515117582012285108222AF828FB5
:2002E700057E00C007C005C006742EC0E07414C0E07480C0E01209F4E58124FBF581D00743
:20030700EF6003BF01358F1090E680E030E71590E6247402F00000000090E625E4F000007F
:200327000000801390E624E4F00000000090E6257440F0000000007582012275820022C083
:20034700E0C082C083D2005391EF90E65D7401F0D083D082D0E032C0E0C082C083C0D075A3
:20036700D008903C00E02401F0A3E03400F0903C00E0FEA3E0FFBE4019BF1F16B202300219
:20038700067592B8E280047592B0E2903C00E4F0A3F05391EF90E65D7402F0D0D0D083D090
:2003A70082D0E032C021C0E0C0F0C082C083C007C006C005C004C003C002C001C000C0D070
:2003C70075D00075820012073F5391EF90E65D7410F0D0D0D000D001D002D003D004D005D9
:2003E700D006D007D083D082D0F0D0E0D02132C021C0E0C0F0C082C083C007C006C005C049
:2004070004C003C002C001C000C0D075D00075820112073F5391EF90E65D7420F0D0D0D00C
:1A04270000D001D002D003D004D005D006D007D083D082D0F0D0E0D02132B7
:2013D800536C617665204649464F20696E697469616C697A65640A0048616E646C65207317
:2013F80065747570646174610A0047657420496E746572666163650A0053657420696E7401
:2014180065726661636520256420746F20616C743A2025640A0053657420636F6E66696792
:0D14380075726174696F6E3A2025640A00B8
:0214500000009A
:203E000012010002FFFFFF40B40404100100010200010A060002FFFFFF4001000902200004
:203E200001010080320904000002FFFFFF03070502020002000705860200020009022000EC
:203E400001010080320904000002FFFFFF0307050202400000070586024000000403090467
:203E60000603480069000C03540068006500720065000C036900460061006300650000009A
:06008800E478FFF6D8FD4C
:1200B20075170075180075193C751A3E751B1C751C3E11
:2004410090E6B9E0FF24F45003020541EF240A83F582EF241083F583E4737388419D4141F3
:20046100B241C2D9F0230404050405050405040404051205B7E582600302055690E6A0E0BA
:2004810043E001F002055612064BE582600302055690E6A0E043E001F00205561206BAE542
:2004A10082600302055690E6A0E043E001F0020556120282E582600302055612076A02054B
:2004C100561202E0AF8290E740EFF090E68AE4F090E68B04F002055690E6BAE0F582120249
:2004E100E4E582707090E6A0E043E001F0806690E6BCE0FF7512167513007514408F8212BE
:20050100028AE582700A90E6A0E043E001F0804590E740E516F090E68AE4F090E68B04F033
:20052100803390E6BCE0FF90E6BAE0F5158F821202B4E582701F90E6A0E043E001F080156E
:2005410090E6B9E0F582120286E582700890E6A0E043E001F090E6A0E043E080F022AF82B5
:20056100747F5FFE24F750030205B3EE240A83F582EE240D83F583E4738C90A3B3A7B3AB04
:20058100B3AF05050505050505050590E6A022EF30E7067EA27FE680047EA17FE68E828F5B
:2005A100832290E6A32290E6A42290E6A52290E6A6229000002290E6B8E0FFBF8002802201
:2005C100BF81028008BF8202803702064390E740E4F090E741F090E68AF090E68B7402F081
:2005E1008064E51825E0FFE517420790E740EFF090E741E4F090E68AF090E68B7402F080D7
:200601004590E6BCE0F58212055FAE82AF838E048F05EE4F7003F582228C828D83E0FC309A
:20062100E0067E017F0080047E007F0090E740EEF090E741E4F090E68AF090E68B7402F0DC
:200641008004758200227582012290E6B8E0FF6005BF0258801B90E6BAE0FFBF010575185B
:2006610000805290E6BAE0FFBF060280487582002290E6BAE0703190E6BCE0F58212055F40
:20068100AE82AF83E0FD5305FE8E828F83EDF090E6BCE0FF30E70343071053071F90E683CE
:2006A100EFF074204FF0800D7582002290E6B9E0F5820202867582012290E6B8E0FF600545
:2006C100BF026E802690E6BAE0FFBF020302073B90E6BAE0FFBF0105751801805D90E6BABE
:2006E100E0FFBF060280537582002290E6BAE0703C90E6BCE0F58212055FAE82AF83EE4F0D
:200701007003F582228E828F83E0FD4305018E828F83EDF090E6BCE0FF30E70343071053AD
:20072100071F90E683EFF074204FF0800D7582002290E6B9E0F58202028675820122AF82E6
:200741007E0110AF027E00EF600E75191C751A3E751B3C751C3E800C75193C751A3E751BB8
:200761001C751C3EEE1392AF2290E6BBE0FFBF01028019BF02028024BF0302802CBF06031F
:2007810002081DBF070302082D02083A7E007F3E90E6B3EFF090E6B47400F02290E6B3E5EC
:2007A1001AF090E6B4E519F0227D5C7E3E7F8090E6BAE0F5537B00EBB5530280430B8D003D
:2007C1008E018F028D828E838FF01212D828F8E439F9880589068A0774012DF9E43EFA8F34
:2007E1000489828A838CF01212D8F9B9030280067D007E007F00ED4E6006C3E5539B50B76F
:20080100ED4E600F8D038E0490E6B3ECF090E6B4EDF02290E6A0E043E001F0227E127F3E64
:2008210090E6B3EFF090E6B47412F02290E6B3E51CF090E6B4E51BF02290E6A0E043E0017D
:02084100F022A3
:200066007902E94400601B7A01901450780075923CE493F2A308B800020592D9F4DAF275BA
:0200860092FFE7
:1B08430020F71130F6138883A88220F509F6A8837583002280FEF280F5F022B4
:203F00000203460002035E00021366000213D0000203AB000203F6000213630002086900FD
:203F200002086B0002086C0002086D00020870000213D6000213D70002085E0002086000FC
:203F4000021368000208690002136200021364000213650002136700021369000213CF0029
:203F60000212A20002086900020869000208690002086A0002086E0002087100020873004E
:203F800002086F0002087200020874000209CB000208610002086300020865000208670020
:183FA0000208620002086400020866000208680002085F000213D500FA
:01085E003267
:01085F003266
:010860003265
:010861003264
:010862003263
:20008E007800E84400600A790075923CE4F309D8FC7800E84400600C7900903C00E4F0A308
:0400AE00D8FCD9FAA7
:010863003262
:010864003261
:010865003260
:01086600325F
:01086700325E
:01086800325D
:01086900325C
:01086A00325B
:01086B00325A
:01086C003259
:01086D003258
:01086E003257
:01086F003256
:010870003255
:010871003254
:010872003253
:010873003252
:010874003251
:20087500D310AF01C3C0D085822285832385F024F52590E600E05418C423541F70057A016A
:20089500FB801C90E600E05418C423541FF9B901067802790080047804790088028903D283
:2008B500CDD2CC8A537554007555007556009071B075F00BE4C0021212F4852253852354A8
:2008D50085245585255612136AAC82AD83AEF0FFD0020CBC00090DBD00050EBE00010FEF3E
:2008F500C313EE13ED13FDEC13FC74FFC39CFC74FF9DFD8DCBEA60067E017F0080047E0091
:200915007F00EE2CF5CAD2CAC29FD29EC29DD29C438780D299D0D092AF223098FDAF99C2A9
:20093500987E008F828E8322AF8210990280FB8F9922AF82BF0A0A75820DC00712093DD0B0
:1E095500078F82C00712093DD007BF0D0A75820AC00712093DD0077E008F828E8322E7
:20097300AE82AF8390E600E05418C423541F70057CB1FD801C90E600E05418C423541FFB94
:20099300BB01067A617B0180047AC27B028A048B058C538D54E55324FFFAE55434FFFB8ACA
:1809B300538B54EA4B70EEEE24FFFAEF34FFFB8A068B07EA4B70DA227C
:0109CB0032F9
:2009CC00C01E85811E7E008E83120947D01E2285823685833785F038E4F533F534F53585FB
:2009EC001D399009CC020ABAC01EE581F51E24FBFF8F39E4F533F534F535E51E24FBF8862E
:100A0C00360886370886389009CC120ABAD01E22CE
:200A1C00AF82C029C02AC02B120A298007C027C0288F82221581158115810531E4B5310239
:200A3C00053222AF8274302FFF24C6500B74072FFFE52660034307208F82020A1CE582FFD9
:200A5C00C4540FF582C007120A3FD007740F5FF582020A3F858253AB2CAC2DAD2EAE2FAAD3
:200A7C00307555208A07EF2FF554EE2354014554FAEB2BFBEC33FCED33FDEE33FEC3EA95A5
:200A9C00534008EAC39553FA430301E55514FF8F5570D18B2C8C2D8D2E8E2F8A302285828C
:200ABC002785832885332985342A85352BE4F531F532AD36AE37AF388D828E838FF0121277
:200ADC00D8FC74012DF536E43EF5378F38ECFF700302129BBF250280030212937E007D002C
:200AFC008E3A8E3B7A007B008E3C7C008E3DE4F545F546753EFF753FFF85364785374885FA
:200B1C0038498547828548838549F01212D8F54AA385824785834885473685483785493854
:200B3C007425B54A08854A82120A1C808574D0254A4003020BFCE54A24C65003020BFC7483
:200B5C00FFB53E55B53F5285455385465490000AC006C005C004C003C0021212BB85824B11
:200B7C0085834CD002D003D004D005D006854A4D754E00E54D254BF54DE54E354CF54EE542
:200B9C004D24D0F545E54E34FFF546E54545466003020B1E7D01020B1E853E53853F549073
:200BBC00000AC006C005C004C003C0021212BB85824D85834ED002D003D004D005D0068509
:200BDC004A4B754C00E54B254DF54DE54C354EF54EE54D24D0F53EE54E34FFF53F020B1EAA
:200BFC00742EB54A1574FFB53E05B53F028003020B1EE4F53EF53F020B1E749F254A500EBE
:200C1C00E54A24854008534ADF75260180037526007420B54A03020CC8742BB54A03020C47
:200C3C00C2742DB54A0280797442B54A03020CCE7443B54A03020CD97444B54A03020F2616
:200C5C007446B54A03020F3C7448B54A03020B1E7449B54A03020F26744AB54A03020B1EA5
:200C7C00744CB54A028050744FB54A03020F2D7450B54A03020E717453B54A0280767454F7
:200C9C00B54A03020B1E7455B54A03020F327458B54A03020F37745AB54A03020B1E020FDB
:200CBC00407E01020B1E753A01020B1E753B01020B1E7B01020B1E753C01020B1EEB600A9E
:200CDC00E53914F98939874D800DE53924FEF54B854B39A94B874D854D82C006C005C004B6
:200CFC00C003C002120A1CD002D003D004D005D006020F62E53924FDF54D854D39A94D877B
:200D1C0047098748098749191985472C85482D85492E8547828548838549F0C006C005C0F8
:200D3C0004C003C0021212A385824D85834ED002D003D004D005D00674FFB53E09B53F0610
:200D5C00854D3E854E3FEE704FC3E54D9545E54E95465044E545C3954DF54BE546954EF525
:200D7C004C854B47854C48154B74FFB54B02154CE5474548601C758220C006C005C004C04A
:200D9C0003C002120A1CD002D003D004D005D00680CF854B45854C46853E4B853F4C852CCC
:200DBC0082852D83852EF01212D8F547854742604FC3E4954B7480854CF063F08095F050E4
:200DDC003F154B74FFB54B02154C854282C006C005C004C003C002120A1CD002D003D004B4
:200DFC00D005D006852C47852D48852E490547E4B54702054885472C85482D85492E809EB7
:200E1C00EE7003020F62C3E54D9545E54E95464003020F62E545C3954DF54DE546954EF53B
:200E3C004E854D4B854E4C154D74FFB54D02154EE54B454C7003020F5C758220C006C0058D
:200E5C00C004C003C002120A1CD002D003D004D005D00680CCE53924FDF54B854B39A94B09
:200E7C008747098748098749191985472C85482D85492E852E43748025435005754B43808D
:200E9C001974A025435005754B50800E74C025435005754B498003754B58854B82C006C041
:200EBC0005C004C003C002120A1C75823A120A1C758230120A1C758278120A1CD002D0037C
:200EDC00D004D005D0067449B54B0280217450B54B02801A852D82C006C005C004C003C0B1
:200EFC0002120A59D002D003D004D005D006852C82C006C005C004C003C002120A59D002ED
:200F1C00D003D004D005D006803C7A01753D0A8035753D088030753D0A802B753D10802682
:200F3C007C018022854A82C006C005C004C003C002120A1CD002D003D004D005D00680066F
:200F5C00854D45854E46EC6068E53924FCFC8C398C01874F09875009875109875219191941
:200F7C00854F2C85502D85512E85522F752C45752D14752E80852C4F852D50852E5174010F
:200F9C00254FF547E43550F54885514985472C85482D85492E854F828550838551F012123A
:200FBC00D8FC8C4F7003020ACE854F82120A1C80C4E53D7003020ACEEB603FE53914F9899A
:200FDC003987048C4F755000755100755200854F2C85502D85512E85522FEA600302107F1A
:200FFC00852C4F755000755100755200854F2C85502D85512E85522F8069E53C6025E539CA
:20101C0024FCFC8C398C01874F098750098751098752191919854F2C85502D85512E8552A5
:20103C002F8040E53924FEFC8C398C018703098704198B4FECF5503395E0F551F552854FCC
:20105C002C85502D85512E85522FEA7016852C4F852D50F551F552854F2C85502D85512E37
:20107C0085522FEA602AE52F30E723C3E4952CF54FE4952DF550E4952EF551E4952FF55219
:20109C00854F2C85502D85512E85522F80027A007C01795CE4F54FF550753000853D82C0C4
:2010BC0006C005C004C002C001120A70D001D002D004D005D006EC700DE530C4F54DE7FBEE
:2010DC00454DF7198002A730054FE4B54F020550ECB40100E433FCE52C452D452E452F70D8
:2010FC00B88944854F40855041E54545467005754501F546ED7043EE704085454F85465093
:20111C00AB400B8B4D754E00C3E54D954FE54E95505021758220C006C005C004C002120A7C
:20113C001CD002D004D005D006154F74FFB54F02155080CC854F45855046EA601D75822DD9
:20115C00C006C005C004120A1CD004D005D006154574FFB5450215468046E5404541604038
:20117C00E53A601D75822BC006C005C004120A1CD004D005D006154574FFB54502154680EB
:20119C001FE53B601B758220C006C005C004120A1CD004D005D006154574FFB54502154638
:2011BC00EE703C85454F854650AA4FAB50154F74FFB54F021550C3E5409AE5419B5041ED4E
:2011DC0060067A307B0080047A207B008A82C006C005C004120A1CD004D005D00680CAC3B0
:2011FC00E5409545E5419546500FE545C39540F54DE5469541F54E800DE4F54DF54E8006B0
:20121C00854F4D85504EA94485404F854150AA4FAD50154F74FFB54F021550EA4D602EEC6E
:20123C00B40100E433FC700A09E7C4540FFD8D3080078705740F5DF530853082C006C004A6
:20125C00C001120A3FD001D004D00680C1EE7003020ACEAD4DAE4E8D038E041DBDFF011E4F
:20127C00EB4C7003020ACE758220C006C005120A1CD005D00680E08F82120A1C020ACE8541
:06129C003182853283223D
:0B1445003C4E4F20464C4F41543E00EF
:0112A2003219
:1812A300AA82AB831212D86003A380F8C3E5829AF582E5839BF5832287
:1D12BB00E5828553F0A4C582C0F08554F0A4D0F025F0C5838553F0A42583F5832214
:0D00590075815C1213D1E582600302005630
:1C12D80020F71430F6148883A88220F507E6A88375830022E280F7E49322E02225
:2012F400AAF0FBE5828553F0A4FCADF0E5838553F0A42DFDE435F0FEE5828554F0A42DFDD6
:20131400E5F03EFEE433FFEA8553F0A42EFEE5F03FFFE5838554F0A42EFEE5F03FFFE58282
:201334008555F0A42EFEE5F03FFFEB8553F0A42FFFEA8554F0A42FFFE5838555F0A42FFFDE
:0E135400E5828556F0A42F8EF08D838C8222C8
:011362003258
:011363003257
:011364003256
:011365003255
:011366003254
:011367003253
:011368003252
:011369003251
:20136A00FB7A20E4FCFDFEFFE5822582F582E58333F583E5F033F5F0EB33FB4017DAE980BC
:20138A0042E5822582F582E58333F583E5F033F5F0EB33FBEC33FCED33FDEE33FEEF33FFEB
:2013AA00EC9553ED9554EE9555EF95564013EC9553FCED9554FDEE9555FEEF9556FF43825D
:0513CA0001DABEEB2278
:0113CF0032EB
:0113D00032EA
:0413D10075820022FF
:0113D50032E5
:0113D60032E4
:0113D70032E3
:00000001FF
